:020000040800F2
:1000000040340120F1020008CD070008CF070008A6
:10001000D1070008D3070008D5070008000000003A
:10002000000000000000000000000000290200089D
:10003000D7070008000000007D020008D721000853
:100040000B0300080B0300080B0300080B03000858
:100050000B0300080B0300080B0300080B03000848
:100060000B0300080B0300080B0300080B03000838
:100070000B0300080B0300080B0300080B03000828
:100080000B0300080B0300080B0300080B03000818
:100090000B0300080B0300080B0300080B03000808
:1000A0000B0300080B0300080B0300080B030008F8
:1000B0000B0300080B0300080B0300080B030008E8
:1000C0000B0300080B0300080B0300080B030008D8
:1000D0000B0300080B0300080B0300080B030008C8
:1000E0000B0300080B0300080B0300080B030008B8
:1000F0000B0300080B0300080B0300080B030008A8
:100100000B0300080B0300080B0300080B03000897
:100110000B0300080B0300080B0300080B03000887
:100120000B0300080B0300080B0300080B03000877
:100130000B0300080B0300080B0300080B03000867
:100140000B0300080B0300080B0300080B03000857
:100150000B0300080B0300080B0300080B03000847
:100160000B0300080B0300080B0300080B03000837
:100170000B0300080B0300080B0300080B03000827
:100180000B0300080B03000800F002F800F03CF835
:100190000AA090E8000C82448344AAF10107DA45E2
:1001A00001D100F031F8AFF2090EBAE80F0013F0F8
:1001B000010F18BFFB1A43F0010318470831000074
:1001C00028310000103A24BF78C878C1FAD8520705
:1001D00024BF30C830C144BF04680C6070470000C1
:1001E0000023002400250026103A28BF78C1FBD840
:1001F000520728BF30C148BF0B6070471FB503F0DE
:100200003EF81FBD10B510BD03F003F81146FFF70F
:10021000F5FF00F077F903F021F803B4FFF7F2FFE0
:1002200003BC03F025F80000294B19680868B0E802
:10023000F04F80F30988BFF36F8F4FF0000080F319
:10024000118870470000000006480068006880F3CD
:10025000088862B661B6BFF34F8FBFF36F8F00DFC0
:1002600000BF00BF08ED00E0DFF80C00016841F4BA
:1002700070010160704700BF88ED00E0EFF3098076
:10028000BFF36F8F124B1A681EF0100F08BF20EDDE
:10029000108A20E9F04F106008B44FF0500080F34E
:1002A000118801F073F94FF0000080F3118808BC49
:1002B00019680868B0E8F04F1EF0100F08BFB0ECE6
:1002C000108A80F30988BFF36F8F704700BF00006A
:1002D00034000020EFF311804FF0500181F31188BA
:1002E000704780F311887047EFF305807047000076
:1002F0000948804709480047FEE7FEE7FEE7FEE7BA
:10030000FEE7FEE7FEE7FEE7FEE7FEE704480549F5
:10031000054A064B70470000D90300088901000810
:10032000402E012040340120403001204030012087
:100330000CB50022019200925849086840F48030C0
:1003400008604FF4A043086800F400300090019862
:10035000401C0190009810B901989842F3D10868A8
:10036000800302D50120009000E00092009801284F
:1003700031D14A484030026842F080520260484819
:10038000026842F440420260444808300268026059
:10039000026842F400420260026842F4A052026025
:1003A000021F404B13600A6842F080720A600A68BC
:1003B0009201FCD53C4A40F203611160016821F0D2
:1003C00003010160016841F0020101600168C1F3AD
:1003D00081010229FAD10CBD10B53448016841F4FD
:1003E000700101602D48016841F0010101602B4A54
:1003F00000210832116002682D4B1A400260031D73
:100400002C4A1A60026822F48022026023480C30D1
:100410000160FFF78DFF25494FF0006080390860CB
:1004200010BD70B51D4E0836306800F00C00224B30
:10043000224900280FD05D1004280ED008280ED0C5
:100440000B6030681D4AC0F30310121D105C0A686F
:10045000C2400A6070BD0B60F3E70D60F1E70F4A20
:10046000121D1068C0F38054106800F03F0034B1D2
:10047000B5FBF0F01368C3F38813584305E0B3FBF2
:10048000F0F01368C3F3881358431268C2F30142B3
:10049000521C5200B0FBF2F00860D2E70038024074
:1004A0000070004004304108003C024088ED00E04C
:1004B000FFFFF6FE103000240024F40000000020AE
:1004C0004FF49674032000F0BEF8204600F0D7FFEA
:1004D000F8E7002000F0B7F8C82000F0D0FFF8E7F8
:1004E0004FF4FA74022000F0AEF8204600F0C7FF87
:1004F000F8E74FF47A74012000F0A5F8204600F0E8
:10050000BEFFF8E71FB54FF4407001F01FFF012058
:1005100000F068F8002000F065F8032000F062F8B1
:10052000022000F05FF80024009401940294234616
:10053000802216A1AFF24500039400F0C5FD002310
:10054000009401940294802215A1AFF26B000394F1
:1005500000F0BAFD0023009401940294802215A1BA
:10056000AFF29100039400F0AFFD002300940194DA
:100570000294802215A1AFF2B700039400F0A4FD0D
:1005800001F032F904B0002010BD00004C65642079
:10059000426C696E6B205461736B20426C75650010
:1005A0004C656420426C696E6B205461736B205201
:1005B000656400004C656420426C696E6B20546178
:1005C000736B20477265656E000000004C65642007
:1005D000426C696E6B205461736B204F72616E6761
:1005E000650000001CB504467648012150F824003F
:1005F00002F021FA7348083830F814000090012006
:100600008DF8040000218DF806108DF807000220F7
:100610008DF805006C48694650F8240001F0F8FF99
:100620001CBD6849684A083931F8101052F820009A
:10063000018370476349644A083931F8101052F851
:10064000200041837047604951F820104A695D4B92
:10065000083B33F8100042404A61704770B586B0DD
:1006600004460E4657480121183850F8240002F07D
:10067000E2F90121880302F00EFA00258DF81450EA
:100680008DF817504F48283830F8140004904E4821
:1006900004A9103850F8240001F0BAFF012E25D12A
:1006A00048482B38015D401E005D02F0C3FA454802
:1006B000263830F8140002908DF80C5008208DF880
:1006C0000D0001258DF80E5002A801F0ABFE3D484B
:1006D0002A38005D8DF804000F208DF805008DF894
:1006E00006008DF8075001A801F035FE06B070BD78
:1006F0003449354A2839103A31F8101052F82000A0
:1007000001F0DABF2DE9FC4104460E462D482D4983
:1007100010380C3950F8240051F8241008430121F6
:1007200002F089F92CB9274801211438006802F039
:10073000A6F92448244F1C38083F10F81420001F45
:1007400030F8141057F8240001F0DAFF1D4807F1C3
:1007500004081A3810F81420001F30F8141058F844
:10076000240001F0CDFF00208DF8060001208DF857
:10077000070002258DF804501248243830F8140080
:1007800000908DF8055057F82400694601F040FFAD
:100790008DF804500B48223830F81400009058F8B7
:1007A0002400694601F034FF3D1F314655F824000E
:1007B00002F0DAFA55F82400012102F04EFBBDE800
:1007C000FC810000B4320008240000207047FEE7DE
:1007D000FEE7FEE7FEE7704700F1080141604FF0D9
:1007E000FF328260C1600161002101607047002119
:1007F0000161704742684A6093688B6093685960F2
:10080000916008610168491C0160704730B50C684F
:10081000621C02D000F1080202E0026904E01A46FC
:1008200053681D68A542FAD953684B6099608A6085
:10083000516008610168491C016030BD0169D0E95F
:1008400001329A60D0E901235A604A68824201D19C
:1008500082684A60002202610868401E0860704792
:1008600070B504460D46002C23D001F08CFCD4E971
:100870000F20216802FB001161600021A163216843
:10088000A160E06B2268216C401E00FB0121E16049
:100890004FF0FF306064A06404F1100065B1FFF711
:1008A0009BFF04F12400FFF797FF01F083FC012078
:1008B00070BDFFF70FFDFEE721690029F5D001F0BB
:1008C000DFF80128F1D101F054FCEEE72DE9F04109
:1008D00005460F4690460026002D18D0542001F002
:1008E000C1FC04469CB105FB07F0401C01F0BAFCBA
:1008F000206048B1E563276401212046FFF7B0FF7F
:1009000084F85080264602E0204601F0F6FC16B13D
:100910003046BDE8F081FFF7DDFCFEE770B5044628
:1009200001F031FC04F124050AE0606A58B1284660
:1009300001F0A6F808B101F03EF9A06C401EA064D9
:10094000A06C0028F1DC4FF0FF35A56401F032FC0B
:1009500001F019FC04F110060AE0206958B1304694
:1009600001F08EF808B101F026F9606C401E606459
:10097000606C0028F1DC6564BDE8704001F01ABCD1
:1009800010B5044601F0FFFBA06BE16B884201D17A
:10099000012400E0002401F00DFC204610BD70B5DC
:1009A000044616460025226C002A10D0C6B1E06825
:1009B00002F064FBE168206C091AE1602268914250
:1009C00002D26168081AE060022E16D01AE0206890
:1009D000C0B9606801F056F905460020606011E07A
:1009E000A06802F04BFB216CA0680844A06061681D
:1009F000884207D32068A06004E0A06B10B1A06B10
:100A0000401EA063A06B401CA063284670BD2DE96A
:100A1000FF4182B0044688461F460025002C03D0C3
:100A2000B8F1000F03D007E0FFF754FCFEE7206C9D
:100A300010B1FFF74FFCFEE7022F05D1E06B012854
:100A400002D0FFF747FCFEE701F0D1F820B9049887
:100A500010B1FFF73FFCFEE7002601F094FBA06B0E
:100A6000E16B884205D3022F03D00498C8B1E5B1E9
:100A70001FE03A4641462046FFF791FF616A41B1C7
:100A800004F1240000F0FCFF012805D101F071FB06
:100A900002E008B101F06DFB01F08CFB012006B013
:100AA00037E701F087FB0020F9E7684601F049F8D5
:100AB000012501F07FFB00F09DFC01F064FB606C00
:100AC000401C00D16664A06C401C00D1A66401F0FB
:100AD00071FB04A9684601F040F830B12046FFF7E9
:100AE0001DFF00F016FC0020D9E72046FFF748FF65
:100AF00070B104F11000049900F048FF2046FFF7A0
:100B00000DFF00F006FC0028A7D101F032FBA4E79E
:100B10002046FFF703FF00F0FCFB9EE770B505469B
:100B2000542001F09FFB0446DCB10020606020608F
:100B3000A060E060A0630121E1632064401E606466
:100B4000A06484F8505004F11000FFF745FE04F152
:100B50002400FFF741FE00231A4619462046FFF7FE
:100B600056FF0CB1204670BDFFF7B4FBFEE710B591
:100B70000446002C09D001F037F8616888420FD193
:100B8000E068401EE06018B108E0FFF7A3FBFEE755
:100B900000231A4619462046FFF739FF012010BDF1
:100BA000002010BD10B5044601F0EDFAA06B20B195
:100BB000002401F0FFFA204610BD0124F9E730B40B
:100BC0000B46026C002A0CD0C1681144C160446815
:100BD000A14201D30168C160C16830BC184602F06F
:100BE0004DBA30BC70472DE9FF4182B004460F4634
:100BF00098460025002C01D01FB107E0FFF76AFBE3
:100C0000FEE7206C10B1FFF765FBFEE700F0EFFF99
:100C100020B9049810B1FFF75DFBFEE7002601F054
:100C2000B2FAA06B48B3E56839462046FFF7C7FF24
:100C3000B8F1000F0DD0E560606A30B104F1240016
:100C400000F01EFF08B101F094FA01F0B3FA0120A0
:100C500025E7A06B401EA063206810B901F054F88E
:100C6000606020690028F0D004F1100000F008FF57
:100C70000128EAD101F07DFAE7E7049808B125B12F
:100C800007E001F097FA002009E7684600F059FFF5
:100C9000012501F08FFA00F0ADFB01F074FA606CF1
:100CA000401C00D16664A06C401C00D1A66401F019
:100CB00081FA04A9684600F050FF30B12046FFF7E2
:100CC0002DFE00F026FB0020E9E62046FFF76AFF34
:100CD000B8B1206830B901F056FA606800F093FFAF
:100CE00001F068FA04F12400049900F04FFE204658
:100CF000FFF714FE00F00DFB002890D101F039FA47
:100D00008DE72046FFF70AFE00F003FB87E770B58A
:100D100004460D46002C09D000F066FF6368984237
:100D200007D1E068401CE060012070BDFFF7D2FAF7
:100D3000FEE700232A4619462046FFF754FF012804
:100D4000F3D1E168491CE16070BD10B50C46002884
:100D500004D0844205D9FFF7BDFAFEE7FFF7BAFADF
:100D6000FEE702220021FFF7B1FD002800D08463D6
:100D700002D1FFF7AFFAFEE710BD2DE9F0410446BE
:100D80000F4615461E46002C01D01FB107E0FFF7A5
:100D9000A1FAFEE7206C10B1FFF79CFAFEE7022EE5
:100DA00005D1E06B012802D0FFF794FAFEE701F0CD
:100DB00022FAFFF78FFA8046A06BE16B884207D3D7
:100DC000022E05D000244046FFF78BFA2046A0E50E
:100DD000324639462046FFF7E2FD012608B105B14B
:100DE0002E60A06C401C04D0A06C401CA0640124A8
:100DF000E9E7606A0028FAD004F1240000F040FE20
:100E00000028F4D0002DF2D02E60F0E72DE9F0415B
:100E100004460F461546002C01D01FB107E0FFF72E
:100E200059FAFEE7206C10B1FFF754FAFEE701F023
:100E3000E2F9FFF74FFA0646A06BE0B139462046CB
:100E4000FFF7BDFEA06B401EA063606C401C04D089
:100E5000606C401C606401240EE020690028FAD018
:100E600004F1100000F00CFE0028F4D0002DF2D0A8
:100E700001202860EFE700243046FFF732FA2046D1
:100E800047E52DE9F04104460E46002C01D01EB185
:100E900007E0FFF71FFAFEE7206C10B1FFF71AFA20
:100EA000FEE701F0A8F9FFF715FA0746A06B38B185
:100EB000E56831462046FFF782FEE560012400E048
:100EC00000243846FFF70DFA204622E510B5044607
:100ED000002C06D001F057F9A46B01F06BF9204605
:100EE00010BDFFF7F7F9FEE710B50446002C08D057
:100EF00001F049F9D4E90E10441A01F05BF92046DB
:100F000010BDFFF7E7F9FEE710B5002801D0806BB0
:100F100010BDFFF7DFF9FEE70021374A02EBC103FE
:100F20005B68834203D1002042F831007047491CBE
:100F30000829F3D3704710B50446002C0BD0204687
:100F4000FFF7EAFF206808B101F0D7F92046BDE8B5
:100F5000104001F0D2B9FFF7BDF9FEE7C06C704751
:100F6000C164704790F85000704710B5002803D056
:100F7000806B20B1002010BDFFF7ACF9FEE7012027
:100F800010BD10B5002805D0816BC06B814204D123
:100F9000012010BDFFF79EF9FEE7002010BD10B53F
:100FA0000022154B53F832401CB1521C082AF9D3C9
:100FB00010BD43F8321003EBC201486010BD70B59C
:100FC00004460D4601F0DFF8626C4FF00000521C41
:100FD00000D16064A26C521C00D1A06401F0EAF858
:100FE000A06B20B9294604F1240000F02AFD204618
:100FF000BDE8704092E40000B000002070B500240D
:10100000FA4D04EB840005EB8000FFF7E5FB641C60
:10101000052CF6D3F5486430FFF7DEFBF348783053
:10102000FFF7DAFBF1488C30FFF7D6FBEF48A03032
:10103000FFF7D2FBED48B430FFF7CEFBEB49EC48AD
:10104000643101631431416370BD70B504461546C7
:10105000002023180A5C83F834200A5C12B1401C7B
:101060000A28F6D3002084F83D00052D00D304257E
:10107000E562A564E064201DFFF7B9FB04F11800E8
:10108000FFF7B5FB2461C5F10500A061646270BD86
:1010900070B506460D46502001F0E4F8044644B110
:1010A000B60045B12846206348B1A522314602F07A
:1010B0002AF8204670BD304601F0D4F8F3E7204608
:1010C00001F01BF90024F4E72DE9FF4F81B08246BF
:1010D000DDE90E59109990469B46BAF1000F04D0F5
:1010E000052D05D3FFF7F6F8FEE7FFF7F3F8FEE767
:1010F0004046FFF7CDFF0446BD4F7CB3216BA8F1FE
:10110000010001EB800020F00706700702D0FFF716
:10111000E1F8FEE7CDF800802A462046119B0299AF
:10112000FFF793FF5A465146304600F0C3FF206058
:10113000B9F1000F01D0C9F8004001F024F8B868F7
:10114000401CB860386810B1786940B10CE03C6070
:10115000B868012808D1FFF751FF05E01AE03868A8
:10116000C06AA84200D83C60786A401C786220645B
:10117000E06A01213A698140114339619B4900EBE2
:10118000800001EB8000211DFFF734FB012401F0FA
:1011900011F801E04FF0FF34012C07D1786928B134
:1011A0003868C06AA84201D200F0E3FF05B02046CB
:1011B000BDE8F08F8E48016B0968002905D0016BEE
:1011C000C968C9684968816270474FF0FF31816220
:1011D000704770B5044600F0D6FF854D04B92C6801
:1011E000201DFFF72BFB58B9E06A804A00EB800115
:1011F00052F8211021B901218140286988432861D2
:10120000A06A18B104F11800FFF718FB7748211DF8
:10121000A030FFF7EFFA6868401C6860686A401CFD
:10122000686200F0C7FF6869002813D0286884420C
:1012300008D1E86A10B1FFF74DF8FEE7BDE870404D
:1012400000F097BF00F09FFFFFF7B4FFBDE87040CC
:1012500000F0B0BF70BD2DE9F0410025644FF86A81
:10126000002808D0B869401CB861F86900B10125B0
:101270002846BDE8F081F868401CF860FE6876B941
:10128000386B006810B1FFF725F8FEE7386B796B13
:1012900039637863386A401C3862FFF78BFFB86A9D
:1012A000DFF8488186420DD3386B006838B1386B5F
:1012B000C068C468606886420ED2B86202E04FF02F
:1012C000FF30B8623868C06A00EB800058F8200030
:1012D0000128CAD90125C8E7201DFFF7AFFAA06A87
:1012E00018B104F11800FFF7A9FAE06A01213A6980
:1012F00081401143396100EB800008EB8000211D23
:10130000FFF778FAE06A3968C96A8842CCD30125C8
:10131000CAE72DE9F0410027354DE86A002807D0DB
:1013200000F031FFE86A401EE862E86A18B13FE069
:10133000FEF7D0FFFEE7A868D0B3DFF8B080012643
:1013400008F18C081DE0D8F80C00C46804F11800FE
:10135000FFF774FA201DFFF771FAE06A2A6906FAAE
:1013600000F111432961214900EB800001EB80006D
:10137000211DFFF73FFAE06A2968C96A884200D355
:10138000EE61D8F800000028DDD1A86938B909E07D
:10139000FFF761FF00B1EE61A869401EA861A8696E
:1013A0000028F5D1E869012802D1012700F0E1FE0B
:1013B00000F000FF38465CE770B504460C4D286825
:1013C0004460E868844206D22968686B091DBDE85C
:1013D0007040FFF71BBA2968286B091DFFF716FA42
:1013E000A86A844200D2AC6270BD0000F000002008
:1013F00034000020FA48C16A491CC162704770B5C8
:1014000005460C460022002D06D044B1F44EF06A89
:1014100040B1FEF75FFFFEE7FEF75CFFFEE7FEF779
:1014200059FFFEE7FFF7E6FFF0682B681C44834294
:1014300005D9A34208D9844206D9012204E0A34277
:1014400001D8844200D901222C607AB13068001D95
:10145000FFF7F4F938B9306890F82C100120884073
:101460003169814331612046FFF7A6FFFFF751FF45
:101470000028B9D1BDE8704000F07BBEB4E770B57C
:1014800002460020002A1BD0D54CE06A10B1FEF7BE
:1014900021FFFEE7FFF7AEFFE06885182068001D1A
:1014A000FFF7CCF938B9206890F82C10012088405B
:1014B0002169814321612846FFF77EFFFFF729FF5D
:1014C000002891D1BDE8704000F053BE8CE710B504
:1014D000044600F058FE0CB9C1480468E46A00F004
:1014E00069FE204610BD2DE9F04104460D46002658
:1014F000052D02D3FEF7EEFEFEE700F044FEB84FE6
:1015000004B93C68A06CA8423CD0854208D939682F
:101510008C4209D03968C96AA94205D8012603E07E
:1015200039688C4200D10126D4F82C80404500D186
:10153000E562A564A069002802DBC5F10500A06191
:10154000A84D08EB8801606905EB8101884215D13F
:10155000201DFFF773F9012120B93A6901FA08F05B
:1015600082433A61E06A3A6981401143396100EB94
:10157000800005EB8000211DFFF73CF9012E01D111
:1015800000F0F7FDBDE8F04100F014BE10B5944A3C
:10159000D06A002802D00120D06110BD0020D061A7
:1015A0001069B0FA80F0C0F11F008E4900EB800096
:1015B00051F8203073B101EB800041684968416007
:1015C00000F10803994201D1496841604068C06850
:1015D000106010BDFEF77EFEFEE770B5044600F019
:1015E000D2FD7F4D04B92C68201DFFF727F958B9AB
:1015F000E06A7C4A00EB800152F8211021B90121F8
:101600008140286988432861A06A18B104F1180054
:10161000FFF714F97348211DB430FFF7EBF800F021
:10162000C9FD2868844216D1686940B1E86A10B1E2
:10163000FEF750FEFEE7BDE8704000F09ABD694835
:10164000A968B4300068884202D100202860CBE647
:10165000BDE870409AE768690028F8D000F093FD73
:10166000FFF7A8FDBDE8704000F0A4BD10B5002153
:1016700000280BD05B4B4269B4339A420AD1806A8E
:10168000A3F12802904205D018B103E0FEF722FE34
:10169000FEE70121084610BD70B5044600280BD0B6
:1016A0004F4D2868844226D000F06DFD2046FFF79C
:1016B000DDFF012803D01AE0FEF70CFEFEE7201D37
:1016C000FFF7BCF8E06A01212A69814011432961D2
:1016D000444900EB800001EB8000211DFFF78AF8F0
:1016E000E06A2968C96A884201D300F042FDBDE87A
:1016F000704000F05FBD77E62DE9F041002504461B
:1017000000280AD000F077FDFEF7E4FD07462046EA
:10171000FFF7ACFF012803D00BE0FEF7DBFDFEE78F
:101720002F4EF06A50B12F4804F118018C30FFF7AA
:1017300061F83846FEF7D5FD28469AE5E06A31683B
:10174000C96A884200D30125201DFFF777F8E06AB7
:1017500001213269814011433161224900EB80004F
:1017600001EB8000211DFFF745F8E2E710B50446C4
:10177000206B00F0C2FD2046BDE8104000F0BDBD6A
:1017800070B5184E164DA0361CE0FFF733FE3068DA
:1017900020B10024FFF7BDFDA4B901E00124F9E761
:1017A00000F0F1FCF068C468201DFFF747F8A86856
:1017B000401EA8606868401E686000F0FBFC204680
:1017C000FFF7D4FF68680028DFD10DE6054CFFF76E
:1017D000D7FF20680128FAD900F0CBFCF7E700001A
:1017E00034000020F00000201FB500240094019474
:1017F000029423468222F7A1F8480394FFF764FC81
:10180000012801D100F0EDFB012804D000280CD103
:10181000FEF760FDFEE7FEF75DFDF1480121416145
:10182000C460BDE81F4000F05FBC1FBD10B5FEF7EF
:1018300051FDEB4900204861BDE8104000F08FBC2D
:1018400010B500F0A0FCE648C46800F0B3FC2046E8
:1018500010BD10B500F0CFFCFEF73CFDE049CC68B0
:10186000FEF73FFD204610BDDD488068704700212F
:1018700001E0401C491C0278A52AFAD0880880B2F1
:1018800070472DE9F05F83460F4690460026386882
:10189000002832D078684068786007F10809484528
:1018A00001D1416879607868D0F80CA07868406808
:1018B0007860484501D1416879607868C4680BEB6D
:1018C00046152C6004F134006860206CA86085F82F
:1018D0000C80E06A2861B8F1030F03D1A06A08B157
:1018E00002202873A06C68610020A861206BFFF7BC
:1018F000BEFFA883761C5445D8D13046BDE8F09F82
:101900002DE9F04706460B46174600240525FFF74C
:1019100071FDDFF8CC82D8F80800834231D3DFF8BC
:10192000C4926D1E05EB850009EB800106EB4410A7
:101930000122FFF7A6FF0444002DF2D106EB44106C
:101940000222D8F83010FFF79CFF044406EB441045
:101950000222D8F83410FFF794FF0444A14906EBA3
:1019600044100422A031FFF78CFF04449D4906EB8C
:1019700044100322B431FFF784FF04440FB1002068
:101980003860FFF7C6FC2046BDE8F08770B50D460D
:1019900000280AD0924C21681831FEF737FF2068E2
:1019A000001DFEF74BFF18B10AE0FEF793FCFEE7BF
:1019B000206890F82C100120884021698143216122
:1019C000681C04D0E0682844BDE87040F4E4216855
:1019D000BDE870408348091DB430FEF70BBF70B5F9
:1019E0001546002810D07E4CE26A82B1226841F090
:1019F0000041916121681831FEF7FCFE2068001D4E
:101A0000FEF71CFF30B10DE0FEF764FCFEE7FEF7C9
:101A100061FCFEE7206890F82C10012088402169C5
:101A200081432161681C04D0E0682844BDE870400F
:101A3000C2E42168BDE870406A48091DB430FEF771
:101A4000D9BE70B50D4600280AD0654C2168183102
:101A5000FEF7D0FE2068001DFEF7F0FE18B10AE088
:101A6000FEF738FCFEE7206890F82C100120884033
:101A7000216981432161E0682844BDE870409BE40E
:101A80002DE9F041C068C468002C15D004F118009D
:101A90000746FEF7D3FE524DEA6A01267AB1514855
:101AA00039468C30FEF7A6FEE06A2968C96A88428A
:101AB00017D90120EE617EE4FEF70CFCFEE7201D45
:101AC000FEF7BCFEE06A2A6906FA00F111432961BB
:101AD000444900EB800001EB8000211DFEF78AFEE7
:101AE000E2E7002067E470B53D4DEA6A002A20D0A5
:101AF00041F000410160C468F4B1FEF79FFE201D73
:101B0000FEF79CFEE06A01262A6906FA00F11143FD
:101B10002961344900EB800001EB8000211DFEF7B4
:101B200069FEE06A2968C96A884208D90120EE6125
:101B30005AE4FEF7CFFBFEE7FEF7CCFBFEE7002002
:101B400052E410B5002805D025490A6A0260C96828
:101B5000416010BDFEF7BEFBFEE770B504460D46C2
:101B6000002C10D095B100F00EFB1D4AD0682968FA
:101B70004B1C0ED02368126A93420CD062688242DA
:101B800009D8012413E0FEF7A5FBFEE7FEF7A2FB50
:101B9000FEE700240BE06268801A884206D2081A29
:101BA00028602046FFF7CDFF002400E0012400F06C
:101BB00001FB204618E40A490120C861704700284B
:101BC00001D0406C704700207047002800D041646D
:101BD0007047000049444C4500000000CD17000844
:101BE00034000020F00000204C480068F0E74B482B
:101BF0004169002903D0C06A18B10020E8E701203C
:101C0000E6E70220E4E770B50446002839D0434DEA
:101C1000E06A2968C96A884233D2A069002804DBD7
:101C20002868C06AC0F10500A061E06A3C4E00EB84
:101C30008000616906EB800081421FD1201DFEF704
:101C4000FDFD012150B9E06A00EB800256F8222028
:101C500022B92A6901FA00F082432A612868C06A21
:101C6000E0622A6981401143296100EB800006EBA4
:101C70008000211DBDE87040FEF7BCBD2868C06A29
:101C8000E06223E470B504460020002C31D0E16C02
:101C900079B1491EE164A36CE26A9A4229D0002915
:101CA00027D1201DFEF7CAFD1D4A1C49012318B18A
:101CB0000DE0FEF70FFBFEE7E06A00EB800552F84F
:101CC000255025B90D6903FA00F085430D61A06C1C
:101CD000E062C0F10500A061E06A0D6983402B431A
:101CE0000B6100EB800002EB8000211DFEF782FDFE
:101CF0000120ACE40949086880690A680968D26A69
:101D0000C2F105028A6163E704490868002803D02C
:101D10000868C26C521CC264086859E7340000208D
:101D2000F000002070B5002441600061D54D914263
:101D30000AD8D11A8269914201D301240EE0011D13
:101D4000E868FEF763FD09E09A4203D2994201D3A5
:101D5000012403E0011DA868FEF758FD204670BD70
:101D6000FEB50646089F9C460020C64D2C68002CF8
:101D70000ED0009101920296062911DAFFF737FF83
:101D8000022806D000231A4669462868FEF73FFE5F
:101D9000FEBD00233A4669462868FEF738FEFEBDC0
:101DA0000023624669462046FEF7E7FFFEBDF8B510
:101DB000B44E1FE0C0680568C468201DFEF73EFDF4
:101DC000616A20468847E069012813D1A069284448
:101DD000A84206D960602461211DB068FEF716FD97
:101DE00008E000200346014600902A462046FFF7FF
:101DF000B7FF40B1B06801680029DBD1B068F16875
:101E0000B160F060F8BDFEF765FAFEE770B5054613
:101E1000FFF716FD04469B4E7068844204D2FFF71C
:101E2000C6FF0120286001E0002028607460204681
:101E300070BD30B585B0934D42E0029800283FDB7D
:101E4000049C606910B1201DFEF7F8FC01A8FFF7A3
:101E5000DDFF024602980A2832D2DFE800F00505CD
:101E60000531222E050531220398A169034601445C
:101E70002046FFF757FF012822D1616A2046884794
:101E8000E06901281CD1002000900398A16900237B
:101E9000421819462046FFF763FF88B9FEF71AFA81
:101EA000FEE70398A06128B1811813462046FFF78A
:101EB00039FF05E0FEF70EFAFEE7204600F01DFAB6
:101EC00000231A4602A92868FEF78DFE0028B4D127
:101ED00005B030BDF8B505460E466A488068C06852
:101EE000C468201DFEF7AAFCE069012811D1A06991
:101EF0002B46411932462046FFF714FF012808D12E
:101F000000200346014600902A462046FFF728FF9E
:101F100028B1616A01B02046BDE8F0400847FEF7ED
:101F2000D9F9FEE7F8B505460E46FFF763FA6846AD
:101F3000FFF76CFF0446009810B1FFF7EAF9F8BD0F
:101F400046B9A54206D8FFF7E4F921462846FFF72F
:101F5000C1FFF8BD4B48291B0068FFF730F8FFF7B9
:101F6000D8F90028F5D100F004F9F8BD45498A6890
:101F70001168002904D00021016019B100207047C8
:101F80000121F9E7D0680068704708B56846FFF797
:101F9000EDFF0099FFF7C6FFFFF74BFFF6E710B51F
:101FA00000F0F1F8374C2068A0B93748FEF714FC70
:101FB00035481430FEF710FC3348A0601430E06060
:101FC00000220C210A20FEF781FC206030B12FA1F5
:101FD000FEF7E5FFBDE8104000F0ECB8FEF77AF937
:101FE000FEE71FB50024FFF7DAFF2648006868B156
:101FF00000200221CDE900100290034603904FF427
:10200000827224A12548FFF75FF8044614B104B09A
:10201000204610BDFEF75EF9FEE72DE9F0470646C3
:10202000DDF820900D4617469846002D14D02C2040
:1020300000F018F904465CB1FFF7B1FF2660A56116
:10204000E761C4F82080C4F82490201DFEF7CFFB80
:1020500025B12046BDE8F0870024F9E7FEF73AF9FC
:10206000FEE70068704710B5044600F08CF8606920
:1020700008B1012400E0002400F09CF8204610BDC7
:10208000006A70476C000020B8010020546D725146
:1020900000000000546D7220537663008B1F00080F
:1020A00063484068401C02D0FEF714F9FEE7FEF7D3
:1020B00011F9FEE724384FF080730362C1615D4976
:1020C000816142606FF0020140F8201970475A4860
:1020D0004FF47A710068B0FBF1F14FF0E020491E37
:1020E00041610721016170471CB55449087801908E
:1020F000FF200870087800909DF800004C4A00F01E
:10210000500010700720906006E09068401E9060BC
:102110009DF80000400000909DF800000006F4D4F7
:10212000107A000200F4E060906001980870444862
:10213000016841F470010160016841F07041016083
:10214000FFF7C5FF00205060FEF78EF83D4801689C
:1021500041F040410160FEF777F800201CBD10B54A
:1021600033484068B0F57A7F02D0FEF7B3F8FEE757
:1021700010BD33494FF080501C390860BFF34F8FBA
:10218000BFF36F8F704710B5FEF7A4F82848416879
:10219000491C4160BFF34F8FBFF36F8F4068012828
:1021A00007D127481C380068C00602D0FEF792F815
:1021B000FEE710BD10B51E494868002807D0401E34
:1021C0004860002806D1BDE81040FEF78AB8FEF747
:1021D00081F8FEE710BD10B5FEF77CF8FFF73BF87D
:1021E00020B117494FF080501C390860BDE81040FD
:1021F0000020FEF776B810B5FEF776F80C491028E7
:1022000009D300F1E02090F8F0030A78904202D25E
:10221000FEF760F8FEE70A4814380068896800F4A1
:10222000E060884202D9FEF755F8FEE710BD0000D5
:102230007C000020A12000080000002000E400E055
:1022400020ED00E034EF00E03D4820F007003D497C
:10225000086000234B6008313B4A4A600B604260D3
:10226000016070472DE9F04104460026FFF7C2F8EF
:10227000344D083D686818B9FFF7E6FF0120686033
:102280003CB10834600704D004F00700C0F1080036
:1022900004442D49601E491E884229D2294A10460D
:1022A000016801E00A4601464868A04202D2086877
:1022B0000028F7D123480830814219D01668083623
:1022C000086810604868001B10280DD90B19586069
:1022D0004C605C681B4800E0104602685768A742E3
:1022E000FAD302681A60036048682968081A2860EF
:1022F000FFF70FF83046BDE8F08110B5002818D080
:1023000008380446FFF776F860680E4900E0114689
:102310000A6853688342FAD3086820600C60094851
:1023200061680838026811440160BDE81040FEF79A
:10233000F0BF10BD034808380068704770470000C0
:10234000E801002090000020F82B01002B490843F1
:102350002B490860704730B50F23C27801250178FA
:10236000002A1FD0264A126802F4E062C2F5E06239
:10237000C2F30722C2F10404D3404278A240847819
:102380001C401443220101F1E02181F8002400786F
:1023900000F01F018D404009800000F1E020C0F8EE
:1023A000005130BD01F01F0085404809800000F158
:1023B000E020C0F8805130BD124A1140014310485E
:1023C000001F016070470E4A121D002903D01168DA
:1023D00001431160704711688143116070474FF0ED
:1023E000E021042804D0086920F004000861704747
:1023F000086940F004000861704700000000FA0519
:102400000CED00E080FFFF1F354900200860091D2A
:102410000860091D0860091D086031493148143100
:102420000860704730B52E4A83790168002B2AD0A6
:1024300013688B431360111D0B680468A3430B6082
:10244000017911440B68046823430B60244C083461
:102450002168036899432160231D19680568A94311
:1024600019604179102905D011440A6800680243B7
:102470000A6030BD21680268114321601968006854
:102480000143196030BD0079104402688A4302603C
:1024900030BD0021016001710C22427181717047D1
:1024A0000F4910310A6802430A6070470146002054
:1024B0000B4A143212680A4200D0012070470849C2
:1024C00014310860704701460020054A1432126832
:1024D0000A4200D00120704701491431086070475A
:1024E000003C0140FFFF7F0010B58D49884209D1B3
:1024F0000121084600F0DBFA0021BDE81040012070
:1025000000F0D5BA8749884209D10121022000F0A4
:10251000CEFA0021BDE81040022000F0C8BA82497E
:10252000884209D10121042000F0C1FA0021BDE850
:102530001040042000F0BBBA7C49884209D1012137
:10254000082000F0B4FA0021BDE81040082000F097
:10255000AEBA7749884209D10121102000F0A7FACC
:102560000021BDE81040102000F0A1BA7149884256
:1025700009D10121202000F09AFA0021BDE8104085
:10258000202000F094BA6C49884209D101214020F2
:1025900000F08DFA0021BDE81040402000F087BA1D
:1025A0006649884209D10121802000F080FA00218B
:1025B000BDE81040802000F07ABA614988420AD113
:1025C00084150121204600F072FA2046BDE8104033
:1025D000002100F06CBA5B4988420AD14415012100
:1025E000204600F064FA2046BDE81040002100F0CB
:1025F0005EBA554988420AD104150121204600F0EF
:1026000056FA2046BDE81040002100F050BA10BD37
:102610002DE9F041002201274FF0030C07FA02F5E3
:102620000B682B40AB422CD1066853000CFA03F424
:10263000A64306600E79D0F800809E4046EA080660
:1026400006600E79012E01D0022E12D18668A643B3
:1026500086604E79D0F808809E4046EA080686607B
:102660004668AE43466045688E799640B6B23543BB
:102670004560C568A543C560CC799C40C3681C43D0
:10268000C460521C102AC9D3BDE8F0814FF6FF7117
:1026900001600021017141718171C171704708B5FC
:1026A00041F480320092009AC261C1610099C16117
:1026B000C169C069009008BD0246002012690A4243
:1026C00000D001207047006980B2704702460020A8
:1026D00052690A4200D001207047406980B27047B9
:1026E0000183704741837047002A01D001837047FE
:1026F000418370474161704742694A404261704777
:1027000010B54B07DB0E9A40C90800EB8100016A47
:102710000F249C40A1430162016A1143016210BD74
:10272000000002400004024000080240000C024089
:10273000001002400014024000180240001C024039
:10274000002002400024024000280240FA480168AC
:1027500041F001010160F84A00210832116002686D
:10276000F64B1A400260031DF54A1A60F24BF54A17
:1027700084331A60F24A103A1B1D1A60026822F470
:1027800080220260EC480C300160181D0160704727
:10279000E9490022891C0A7008707047024600202F
:1027A000510901290CD002290DD0E349743109687F
:1027B00002F01F02012393400B4200D0012070471A
:1027C000DD490968F4E7DC4970310968F0E718B5BC
:1027D000002000904FF4A0443120FFF7DFFF009964
:1027E000491C00910099A14201D00028F4D0312069
:1027F000FFF7D4FF08B1012018BD002018BDCE4A54
:10280000116821F0F80141EAC00010607047CE491C
:1028100008607047C849002270310A700A700128A8
:1028200004D0042801D105200870704701200870E9
:102830007047C6490860704710B5029C41EA821192
:102840004FF0FF3202EB530241EA0241014341EAF9
:102850000460B949091D086010BDBB49086670478E
:10286000800140EA0170B449843108607047B6497C
:1028700088667047800140EA0160AF4940EA027013
:10288000883108607047B04908677047AE49C8642E
:102890007047A94B08331A6822F0EC6208431043D2
:1028A00018607047A44B08331A6822F07842084336
:1028B000104318607047A04A0832116821F00301E4
:1028C0000143116070479C480830006800F00C001C
:1028D0007047994A0832116821F0F00101431160F4
:1028E0007047954A0832116821F4E05101431160A4
:1028F0007047914A0832116821F4604141EAC000F2
:102900001060704770B58C4B0833196801F00C01EA
:102910008F4C00291ED0661004291DD008291DD017
:102920000460196801F0F00109098A4A545C0168E1
:10293000E14041601C6804F4E054A40A145D21FAEB
:1029400004F484601B6803F460435B0BD25CD140E9
:10295000C16070BD0460E4E70660E2E7764A121DDC
:102960001168C1F38055116801F03F0135B1B6FB24
:10297000F1F11468C4F38814614305E0B4FBF1F18C
:102980001468C4F3881461431268C2F30142521CF4
:102990005200B1FBF2F10160C3E7C0F3012103294A
:1029A00008D1654B0833196821F4F8126A490140CF
:1029B00011431960604A70321168C0F30B00014383
:1029C0001160704761494439086070475F49403978
:1029D00008607047614908607047574A8C32116837
:1029E00021F01F01401E014311607047524A8C3292
:1029F000116821F4F851401E41EA00201060704730
:102A00004D4A8C32116821F4401101431160704726
:102A1000494A8C32116821F440010143116070472A
:102A2000454A8C32116821F44031014311607047EE
:102A30004B4908607047404A3032002903D0116882
:102A400001431160704711688143116070473A4A31
:102A50003432002903D011680143116070471168B6
:102A6000814311607047344A3832002903D011681D
:102A700001431160704711688143116070472E4A0D
:102A80004032002903D0116801431160704711687A
:102A9000814311607047284A4432002903D01168ED
:102AA0000143116070471168814311607047224AE9
:102AB0001032002903D0116801431160704711687A
:102AC0008143116070471C4A1432002903D01168F9
:102AD0000143116070471168814311607047164AC5
:102AE0001832002903D01168014311607047116842
:102AF000814311607047104A2032002903D01168C9
:102B000001431160704711688143116070470A4AA0
:102B10002432002903D01168014311607047116805
:102B2000814311607047044A503200291AD011685D
:102B3000014311607047000000380240FFFFF6EAD1
:102B4000103000240030002000004742800E474231
:102B50000024F400A0000020FFFCFF0F5C014742AE
:102B6000E0114742116881431160E3E7274A0029D9
:102B700003D0116801431160DCE7116881431160E3
:102B8000D8E7224A121D002903D0116801431160C1
:102B9000D0E7116881431160CCE71C4A0C32002950
:102BA00003D0116801431160C4E7116881431160CB
:102BB000C0E7164A1032002903D0116801431160A2
:102BC000B8E7116881431160B4E7104A473A002919
:102BD00003D0117801431170ACE711788143117073
:102BE000A8E70A482030016841F080710160A1E740
:102BF00001460020054A483A12680A429AD001204C
:102C000098E702494639087094E7000054380240BA
:102C100010B501218C032046FFF779FF2046BDE85F
:102C200010400021FFF773BF134908607047134934
:102C30000862704710B58A07120F0F23934021F0E6
:102C400003040F49214401F608010C689C430C6001
:102C50000B68904003430B6010BD0849DC310860ED
:102C6000704708490860704700200349203109680F
:102C7000C90500D5012070470038014000002742F7
:102C8000003001400004274210B5F449884209D1C0
:102C900001211020FFF73BFF0021BDE8104010206C
:102CA000FFF735BFEE4988420AD101214C04204686
:102CB000FFF721FF2046BDE810400021FFF71BBFB2
:102CC000E84988420AD101218C042046FFF713FF0E
:102CD0002046BDE810400021FFF70DBFE2498842C1
:102CE0000AD10121CC042046FFF705FF2046BDE8AC
:102CF00010400021FFF7FFBEDC4988420AD10121C4
:102D00000C052046FFF7F7FE2046BDE810400021E5
:102D1000FFF7F1BED649884209D101212020FFF7F3
:102D2000F6FE0021BDE810402020FFF7F0BED1499B
:102D300088420AD101218C072046FFF7DCFE20469D
:102D4000BDE810400021FFF7D6BECB4988420AD12A
:102D5000440501212046FFF7CEFE2046BDE8104085
:102D60000021FFF7C8BE10BD7FB504460D46208A7E
:102D700020F44051E88808432082A08941F20C6188
:102D80008843A9882A8911436A8902431143A18192
:102D9000A08A20F44071A8890843A0826846FFF702
:102DA000B1FDAE48844202D0B148844201D10398BB
:102DB00000E00298A189090408D500EBC00101EBED
:102DC000001029684900B0FBF1F007E000EBC001FA
:102DD00001EB001029688900B0FBF1F06422B0FB20
:102DE000F2F109010B096FF018056B4300EB83004A
:102DF000A3891D044FF0320307D503EBC000B0FBDD
:102E0000F2F000F00700084306E003EB0010B0FB0F
:102E1000F2F000F00F00084320817FBD4FF41651FF
:102E2000016000218180C18001810C224281818169
:102E3000704710B5028A22F470630A884C882243D6
:102E40008C88C9880C4322431A43028210BD00219A
:102E5000018041808180C1807047002904D0818930
:102E600041F4005181817047818921F400518181B1
:102E70007047028B02F47F420283028B0A43028373
:102E80007047002904D0818941F400418181704755
:102E90008189C1F30E0181817047002904D0818AA4
:102EA00041F4006181827047818A21F4006181824E
:102EB0007047C1F30801818070478088C0F3080023
:102EC0007047028A22F00F020282028A0A430282BB
:102ED0007047002904D0818941F002018181704747
:102EE000818921F0020181817047828922F4006288
:102EF000828182890A4382817047028A22F02002FD
:102F00000282028A0A4302827047002904D0018AA1
:102F100041F4804101827047018A21F4804101829D
:102F20007047818941F0010181817047002904D0F7
:102F3000818A41F0080181827047818A21F008016D
:102F400081827047028BD2B20283028B42EA012156
:102F500001837047002904D0818A41F020018182D9
:102F60007047818A21F0200181827047002904D0B6
:102F7000818A41F0100181827047818A21F010011D
:102F800081827047828A22F004028282828A0A4306
:102F900082827047002904D0818A41F00201818237
:102FA0007047818A21F0020181827047002A03D094
:102FB000828A0A4382827047828A8A438282704769
:102FC00010B540F66A13C1F3421301F01F0401214A
:102FD000A140012B07D0022B07D014303AB1026870
:102FE0000A43026010BD0C30F8E71030F6E70268C3
:102FF0008A43026010BD0246002012880A4200D0B7
:10300000012070478A05C9430180704770B50024CC
:1030100040F66A12C1F3421301F01F05012606FAB9
:1030200005F2012B0CD0022B0DD0838A1340090A24
:103030008E40008830400BB100B10124204670BDA5
:1030400083891340F3E7038A1340F0E740F66A12DE
:103050000A0A01219140C9430180704700100140D4
:103060000044004000480040004C00400050004038
:103070000014014000780040007C0040032A40F228
:10308000308010F0030C00F0158011F8013BBCF10A
:10309000020F624498BF11F801CB00F8013B38BF22
:1030A00011F8013BA2F1040298BF00F801CB38BF30
:1030B00000F8013B11F0030300F03080083AC0F043
:1030C000088051F8043B083A51F804CBA0E80810F6
:1030D000F5E7121D5CBF51F8043B40F8043BAFF329
:1030E0000080D20724BF11F8013B11F801CB48BF83
:1030F00011F8012B24BF00F8013B00F801CB48BFB9
:1031000000F8012B704702F0FF0343EA032242EA72
:10311000024200F037B870477047704710B5203A48
:10312000C0F00B80B1E81850203AA0E81850B1E880
:103130001850A0E81850BFF4F5AF5FEA027C24BF36
:10314000B1E81850A0E8185044BF18C918C0BDE82D
:1031500010405FEA827C24BF51F8043B40F8043BF6
:1031600008BF7047D20728BF31F8023B48BF11F8AB
:10317000012B28BF20F8023B48BF00F8012B704705
:103180004FF000020429C0F0128010F0030C00F090
:103190001B80CCF1040CBCF1020F18BF00F8012B0E
:1031A000A8BF20F8022BA1EB0C0100F00DB85FEADC
:1031B000C17C24BF00F8012B00F8012B48BF00F8A8
:1031C000012B70474FF0000200B513469446964617
:1031D000203922BFA0E80C50A0E80C50B1F120012A
:1031E000BFF4F7AF090728BFA0E80C5048BF0CC0D8
:1031F0005DF804EB890028BF40F8042B08BF704736
:1032000048BF20F8022B11F0804F18BF00F8012BA7
:103210007047754600F028F8AE46050069465346EB
:1032200020F00700854618B020B5FDF76FF8BDE81F
:1032300020404FF000064FF000074FF000084FF01D
:10324000000B21F00701AC46ACE8C009ACE8C009AE
:10325000ACE8C009ACE8C0098D4670470446AFF33E
:1032600000802046FCF7D9FF00487047E02D012080
:1032700001491820ABBEFEE72600020070474FF060
:103280004070E1EE100A70470000060001000100E6
:10329000000400080A000B000700070001000000FE
:1032A0000000040004000000040000000010008082
:1032B0000040002008000000080000000800000096
:1032C00008000000E432000800000020B000000008
:1032D000C401000894330008B000002090330100BE
:1032E000E001000800D8B805000000000000000060
:1032F00001020304060708090000024000480040DC
:103300000008024000080240000C0240000C02408D
:10331000000C0240000C0240000000000000000011
:10332000000000000000000000000000000000009D
:10333000000000000000000000000000000000008D
:10334000FFFFFFFF00000000000000000000000081
:10335000000000000000000000000000000000006D
:1033600000000000AAAAAAAA00000000F82B010091
:10337000000000000000000000000000000000004D
:103380000000000000000000010203040102030429
:04339000060708091B
:040000050800018965
:00000001FF
